:100000006BC084C083C082C081C080C07FC07EC0FE
:100010007DC07CC07BC07AC079C078C077C0FF004B
:100020000000FF000000FF000000FF000000FF00D4
:100030000000FF000000FF000000FF000000FF00C4
:100040000000FF000000FF000000FF000000FF00B4
:100050000000FF000000FF000000FF000000FF00A4
:100060000000FF002A00FF005500FF007F00FF0096
:10007000AA00FF00D400FF00FF00D42AD400AA5534
:10008000AA007F7F7F0055AA55002AD42A0000FFCE
:10009000000000FF000000FF000000FF000000FF64
:1000A000000000FF000000FF000000F52A0000EB48
:1000B000550000E17F0000D7AA0000CDD40000C4A5
:1000C000FF00009CFF000075FF00004EFF000027AE
:1000D000FF000000FF00F50211241FBECFE5D2E0B3
:1000E000DEBFCDBF20E0A0E6B0E001C01D92AF377B
:1000F000B207E1F710E0CCE6D0E003C02197FE01A3
:100100009AD2CB36D107D1F785D02EC479CF2FEF35
:10011000280F31E080E0C098B89A9DE09A95F1F7F9
:100120000000C09AB89898E29A95F1F796B391704A
:1001300091959323892B92E99A95F1F700C0330F9B
:10014000215048F7089561509DE09A95F1F700001D
:10015000C098B89A80FF0EC09DE09A95F1F7000014
:10016000C09AB89892E99A95F1F700C086956150C7
:1001700058F7089592E99A95F1F700C0C09AB89897
:100180009DE09A95F1F70000F1CF0F931F93CF9365
:10019000DF93EB018B01040F111D68E08991D3DF20
:1001A000C017D107D1F7DF91CF911F910F9108951B
:1001B000C098B89A8FEB93E00197F1F700C0000068
:1001C000C09AB8988FEB93E00197F1F700C0000058
:1001D0000895CF93DF9300D0CDB7DEB78A83E8DFF1
:1001E00085E5898341E0BE016F5F7F4F80E690E047
:1001F000CCDF48E060E670E0CB01C7DF41E0BE0144
:100200006E5F7F4F80E690E0C0DF0F900F90DF9130
:10021000CF910895CDB7DEB76B970FB6F894DEBFD8
:100220000FBECDBF89E080936D00C09AB898B09B97
:10023000FECFBEDF80EF898341E0BE016F5F7F4F5D
:1002400080E690E0A2DF10E0C12CD12C7601C394AF
:1002500081E05DDFB82E01E0811101C000E081E0A6
:1002600056DF91E0811101C090E009138AC188E056
:10027000E0E6F0E0A7E7B0E001900D928A95E1F7A3
:1002800080916D00EEE6F0E099E0DF011D929A9515
:10029000E9F789508430D8F483708295880F807E86
:1002A000909172009F79892B8093720088E0E7E734
:1002B000F0E0A0E6B0E001900D928A95E1F78EE4BF
:1002C00088DF49E06EE670E080E690E05EDFB99A94
:1002D00080E886B98FE887B9AE014F5F5F4F5E83D4
:1002E0004D8388E0E7E7F0E0A0E6B0E001900D92F2
:1002F0008A95E1F78EEB6DDF4EE6E42E40E0F42EBA
:10030000870188E004DFD8018D938D01B0E00737C5
:100310001B07B9F788E0E7E7F0E0A0E6B0E001905E
:100320000D928A95E1F784E454DF80916D00895045
:10033000990B95958795959587956DE570E06AD1B0
:100340008C010115110509F043C188E0E7E7F0E0F1
:10035000A0E6B0E001900D928A95E1F78EEB39DFCF
:1003600088E0D5DED7018D937D01B7E7EB16B0E0CD
:10037000FB06B1F760916E0070916F0024E07695F6
:1003800067952A95E1F76E320CF42BC16DE2062ECB
:10039000000C770B660F771F660F771F625E7F4F2B
:1003A00044E050E0CE0101964CD12980EA81EF83F0
:1003B000FB81F8872C812F874E2F50E05A87498781
:1003C0008F2F90E09C878B87A22DB0E0BE87AD87F2
:1003D000F0906A0069857A856F197109072E000C03
:1003E000880B990BCAD120E030E040E85CE351D2A1
:1003F000688B798B8A8B9B8BA0906B006B857C853F
:100400006A197109072E000C880B990BB6D120E0F0
:1004100030E040E85CE33DD26C8B7D8B8E8B9F8B14
:10042000B09069006D857E856B197109072E000CEF
:10043000880B990BA2D120E030E040E85CE329D2A0
:10044000688F798F8A8F9B8F6F2D70E080E090E0AE
:1004500092D16B017C016A2D70E080E090E08BD13D
:100460002B013C016B2D70E080E090E084D14B01CA
:100470005C0180E4382E8FEC97E00197F1F700C023
:100480000000AFECB7E01197F1F700C00000EFEC0F
:10049000F7E03197F1F700C000008FEC97E001978B
:1004A000F1F700C00000AFECB7E01197F1F700C022
:1004B0000000288939894A895B89B601C701CBD0F8
:1004C0006B017C012C893D894E895F89B201C30192
:1004D000C2D02B013C01288D398D4A8D5B8DB40132
:1004E000C501B9D04B015C01B201C30118D16A83C7
:1004F000B401C50114D16B83B601C70110D1698362
:10050000C098B89AF89489E090E0ED81FE8101905E
:1005100005D0019003D0008001D011C007D006D0D3
:1005200005D004D003D002D001D000C0001CC19A75
:1005300008F0C1980000000008F4C19808950197E0
:1005400021F778943A9409F096CF20926900BF8100
:10055000B0936A00E885E0936B00FF85F0936C0030
:100560000F5F1F4F0F30110509F032CF82E390E08B
:10057000AFECB7E01197F1F700C000000197C1F7A9
:10058000B0CE812F8770A701960104C0220F331FC0
:10059000441F551F8A95D2F7DA01C901E12FE6956C
:1005A000E695E695F0E0E05AFF4F2081B1100EC0CD
:1005B00080959095A095B0958223808361E0802FEF
:1005C000C2DD1F5F103409F043CE51CE822BF5CF30
:1005D000EFECF7E03197F1F700C00000015011098E
:1005E000B0CE67FFD4CE60E0D2CEEDE6F0E012866A
:1005F00013861486158616861786108A118AE0E6F9
:10060000F0E0108211821282138214821582168207
:10061000178208950024552704C0080E591F880F1B
:10062000991F009729F076956795B8F37105B9F78A
:10063000802D952F0895EE0FFF1F0590F491E02D6A
:100640000994FB01DC0102C005900D92415050401D
:10065000D8F708955058BB27AA270ED0E0C0D1D0B4
:1006600030F0D6D020F031F49F3F11F41EF4C6C014
:100670000EF4E095E7FBBCC0E92FE2D080F3BA1797
:10068000620773078407950718F071F49EF5FAC0A6
:100690000EF4E0950B2EBA2FA02D0B01B90190019D
:1006A0000C01CA01A0011124FF27591B99F0593FE1
:1006B00050F4503E68F11A16F040A22F232F342F29
:1006C0004427585FF3CF469537952795A795F04077
:1006D0005395C9F77EF41F16BA0B620B730B840B8C
:1006E000BAF09150A1F0FF0FBB1F661F771F881F44
:1006F000C2F70EC0BA0F621F731F841F48F487959C
:1007000077956795B795F7959E3F08F0B3CF93958A
:10071000880F08F09927EE0F97958795089598D040
:1007200088F09F5790F0B92F9927B751A0F0D1F0DA
:10073000660F771F881F991F1AF0BA95C9F712C064
:10074000B13081F09FD0B1E008959CC0672F782F21
:100750008827B85F39F0B93FCCF3869577956795D0
:10076000B395D9F73EF490958095709561957F4F3C
:100770008F4F9F4F0895E89409C097FB3EF49095E2
:100780008095709561957F4F8F4F9F4F9923A9F06A
:10079000F92F96E9BB279395F695879577956795F9
:1007A000B795F111F8CFFAF4BB0F11F460FF1BC03D
:1007B0006F5F7F4F8F4F9F4F16C0882311F096E9D0
:1007C00011C0772321F09EE8872F762F05C066237E
:1007D00071F096E8862F70E060E02AF09A95660F37
:1007E000771F881FDAF7880F9695879597F90895F0
:1007F00097F99F6780E870E060E008959FEF80ECD4
:10080000089500240A941616170618060906089576
:1008100000240A9412161306140605060895092EDC
:100820000394000C11F4882352F0BB0F40F4BF2B4B
:1008300011F460FF04C06F5F7F4F8F4F9F4F08958B
:1008400057FD9058440F551F59F05F3F71F0479581
:10085000880F97FB991F61F09F3F79F08795089566
:10086000121613061406551FF2CF4695F1DF08C085
:10087000161617061806991FF1CF869571056105A2
:1008800008940895E894BB2766277727CB0197F94A
:1008900008950AD0C4CFB5DF28F0BADF18F0952349
:1008A00009F0A6CFABCFEFCFCBDFA8F39923D9F3D5
:1008B0005523C9F3950F50E0551FAA27EE27FF27B0
:1008C000BB2700240894679520F4E20FF31FB41FA0
:1008D0000A1E220F331F441FAA1F6695A9F777959A
:1008E00030F4F30FB41F0A1E121E08F46395330F81
:1008F000441FAA1F221F769599F7879520F4B40FFD
:100900000A1E121E631F440FAA1F221F331F869543
:10091000A9F7862F712D602D11249F5750408AF022
:10092000E1F088234AF0EE0FFF1FBB1F661F771F01
:10093000881F91505040A9F79E3F510570F058CF45
:10094000A2CF5F3FECF3983EDCF3869577956795F1
:10095000B795F795E7959F5FC1F7FE2B880F911D1F
:0C0960009695879597F90895F894FFCFBD
:00000001FF
